{
  "address": "0xD18498685C4f41F26d207C889968121c4cbC6745",
  "abi": [
    {
      "inputs": [],
      "stateMutability": "nonpayable",
      "type": "constructor"
    },
    {
      "anonymous": false,
      "inputs": [
        {
          "indexed": false,
          "internalType": "address",
          "name": "previousAdmin",
          "type": "address"
        },
        {
          "indexed": false,
          "internalType": "address",
          "name": "newAdmin",
          "type": "address"
        }
      ],
      "name": "AdminChanged",
      "type": "event"
    },
    {
      "anonymous": false,
      "inputs": [
        {
          "indexed": true,
          "internalType": "address",
          "name": "owner",
          "type": "address"
        },
        {
          "indexed": true,
          "internalType": "address",
          "name": "spender",
          "type": "address"
        },
        {
          "indexed": false,
          "internalType": "uint256",
          "name": "value",
          "type": "uint256"
        }
      ],
      "name": "Approval",
      "type": "event"
    },
    {
      "anonymous": false,
      "inputs": [
        {
          "indexed": true,
          "internalType": "address",
          "name": "beacon",
          "type": "address"
        }
      ],
      "name": "BeaconUpgraded",
      "type": "event"
    },
    {
      "anonymous": false,
      "inputs": [
        {
          "indexed": false,
          "internalType": "uint8",
          "name": "version",
          "type": "uint8"
        }
      ],
      "name": "Initialized",
      "type": "event"
    },
    {
      "anonymous": false,
      "inputs": [
        {
          "indexed": true,
          "internalType": "uint256",
          "name": "id",
          "type": "uint256"
        }
      ],
      "name": "MintingSetCompleted",
      "type": "event"
    },
    {
      "anonymous": false,
      "inputs": [
        {
          "indexed": false,
          "internalType": "address",
          "name": "account",
          "type": "address"
        }
      ],
      "name": "Paused",
      "type": "event"
    },
    {
      "anonymous": false,
      "inputs": [
        {
          "indexed": true,
          "internalType": "bytes32",
          "name": "role",
          "type": "bytes32"
        },
        {
          "indexed": true,
          "internalType": "bytes32",
          "name": "previousAdminRole",
          "type": "bytes32"
        },
        {
          "indexed": true,
          "internalType": "bytes32",
          "name": "newAdminRole",
          "type": "bytes32"
        }
      ],
      "name": "RoleAdminChanged",
      "type": "event"
    },
    {
      "anonymous": false,
      "inputs": [
        {
          "indexed": true,
          "internalType": "bytes32",
          "name": "role",
          "type": "bytes32"
        },
        {
          "indexed": true,
          "internalType": "address",
          "name": "account",
          "type": "address"
        },
        {
          "indexed": true,
          "internalType": "address",
          "name": "sender",
          "type": "address"
        }
      ],
      "name": "RoleGranted",
      "type": "event"
    },
    {
      "anonymous": false,
      "inputs": [
        {
          "indexed": true,
          "internalType": "bytes32",
          "name": "role",
          "type": "bytes32"
        },
        {
          "indexed": true,
          "internalType": "address",
          "name": "account",
          "type": "address"
        },
        {
          "indexed": true,
          "internalType": "address",
          "name": "sender",
          "type": "address"
        }
      ],
      "name": "RoleRevoked",
      "type": "event"
    },
    {
      "anonymous": false,
      "inputs": [
        {
          "indexed": true,
          "internalType": "address",
          "name": "from",
          "type": "address"
        },
        {
          "indexed": true,
          "internalType": "address",
          "name": "to",
          "type": "address"
        },
        {
          "indexed": false,
          "internalType": "uint256",
          "name": "value",
          "type": "uint256"
        }
      ],
      "name": "Transfer",
      "type": "event"
    },
    {
      "anonymous": false,
      "inputs": [
        {
          "indexed": false,
          "internalType": "address",
          "name": "account",
          "type": "address"
        }
      ],
      "name": "Unpaused",
      "type": "event"
    },
    {
      "anonymous": false,
      "inputs": [
        {
          "indexed": true,
          "internalType": "address",
          "name": "implementation",
          "type": "address"
        }
      ],
      "name": "Upgraded",
      "type": "event"
    },
    {
      "inputs": [],
      "name": "BLOCKED_ROLE",
      "outputs": [
        {
          "internalType": "bytes32",
          "name": "",
          "type": "bytes32"
        }
      ],
      "stateMutability": "view",
      "type": "function"
    },
    {
      "inputs": [],
      "name": "BLOCKLISTER_ROLE",
      "outputs": [
        {
          "internalType": "bytes32",
          "name": "",
          "type": "bytes32"
        }
      ],
      "stateMutability": "view",
      "type": "function"
    },
    {
      "inputs": [],
      "name": "DEFAULT_ADMIN_ROLE",
      "outputs": [
        {
          "internalType": "bytes32",
          "name": "",
          "type": "bytes32"
        }
      ],
      "stateMutability": "view",
      "type": "function"
    },
    {
      "inputs": [],
      "name": "DOMAIN_SEPARATOR",
      "outputs": [
        {
          "internalType": "bytes32",
          "name": "",
          "type": "bytes32"
        }
      ],
      "stateMutability": "view",
      "type": "function"
    },
    {
      "inputs": [],
      "name": "MINTER_ROLE",
      "outputs": [
        {
          "internalType": "bytes32",
          "name": "",
          "type": "bytes32"
        }
      ],
      "stateMutability": "view",
      "type": "function"
    },
    {
      "inputs": [],
      "name": "PAUSER_ROLE",
      "outputs": [
        {
          "internalType": "bytes32",
          "name": "",
          "type": "bytes32"
        }
      ],
      "stateMutability": "view",
      "type": "function"
    },
    {
      "inputs": [],
      "name": "PROXYOWNER_ROLE",
      "outputs": [
        {
          "internalType": "bytes32",
          "name": "",
          "type": "bytes32"
        }
      ],
      "stateMutability": "view",
      "type": "function"
    },
    {
      "inputs": [],
      "name": "UNPAUSER_ROLE",
      "outputs": [
        {
          "internalType": "bytes32",
          "name": "",
          "type": "bytes32"
        }
      ],
      "stateMutability": "view",
      "type": "function"
    },
    {
      "inputs": [
        {
          "internalType": "address",
          "name": "owner",
          "type": "address"
        },
        {
          "internalType": "address",
          "name": "spender",
          "type": "address"
        }
      ],
      "name": "allowance",
      "outputs": [
        {
          "internalType": "uint256",
          "name": "",
          "type": "uint256"
        }
      ],
      "stateMutability": "view",
      "type": "function"
    },
    {
      "inputs": [
        {
          "internalType": "address",
          "name": "spender",
          "type": "address"
        },
        {
          "internalType": "uint256",
          "name": "amount",
          "type": "uint256"
        }
      ],
      "name": "approve",
      "outputs": [
        {
          "internalType": "bool",
          "name": "",
          "type": "bool"
        }
      ],
      "stateMutability": "nonpayable",
      "type": "function"
    },
    {
      "inputs": [
        {
          "internalType": "address",
          "name": "account",
          "type": "address"
        }
      ],
      "name": "balanceOf",
      "outputs": [
        {
          "internalType": "uint256",
          "name": "",
          "type": "uint256"
        }
      ],
      "stateMutability": "view",
      "type": "function"
    },
    {
      "inputs": [
        {
          "internalType": "uint256",
          "name": "amount",
          "type": "uint256"
        }
      ],
      "name": "burn",
      "outputs": [],
      "stateMutability": "nonpayable",
      "type": "function"
    },
    {
      "inputs": [
        {
          "internalType": "address",
          "name": "account",
          "type": "address"
        },
        {
          "internalType": "uint256",
          "name": "amount",
          "type": "uint256"
        }
      ],
      "name": "burnFrom",
      "outputs": [],
      "stateMutability": "nonpayable",
      "type": "function"
    },
    {
      "inputs": [
        {
          "internalType": "address",
          "name": "owner",
          "type": "address"
        },
        {
          "internalType": "address",
          "name": "spender",
          "type": "address"
        },
        {
          "internalType": "uint256",
          "name": "value",
          "type": "uint256"
        },
        {
          "internalType": "uint256",
          "name": "deadline",
          "type": "uint256"
        },
        {
          "internalType": "uint8",
          "name": "v",
          "type": "uint8"
        },
        {
          "internalType": "bytes32",
          "name": "r",
          "type": "bytes32"
        },
        {
          "internalType": "bytes32",
          "name": "s",
          "type": "bytes32"
        }
      ],
      "name": "burnFromWithPermit",
      "outputs": [],
      "stateMutability": "nonpayable",
      "type": "function"
    },
    {
      "inputs": [],
      "name": "decimals",
      "outputs": [
        {
          "internalType": "uint8",
          "name": "",
          "type": "uint8"
        }
      ],
      "stateMutability": "pure",
      "type": "function"
    },
    {
      "inputs": [
        {
          "internalType": "address",
          "name": "spender",
          "type": "address"
        },
        {
          "internalType": "uint256",
          "name": "subtractedValue",
          "type": "uint256"
        }
      ],
      "name": "decreaseAllowance",
      "outputs": [
        {
          "internalType": "bool",
          "name": "",
          "type": "bool"
        }
      ],
      "stateMutability": "nonpayable",
      "type": "function"
    },
    {
      "inputs": [],
      "name": "getImplementation",
      "outputs": [
        {
          "internalType": "address",
          "name": "",
          "type": "address"
        }
      ],
      "stateMutability": "view",
      "type": "function"
    },
    {
      "inputs": [
        {
          "internalType": "bytes32",
          "name": "role",
          "type": "bytes32"
        }
      ],
      "name": "getRoleAdmin",
      "outputs": [
        {
          "internalType": "bytes32",
          "name": "",
          "type": "bytes32"
        }
      ],
      "stateMutability": "view",
      "type": "function"
    },
    {
      "inputs": [
        {
          "internalType": "bytes32",
          "name": "role",
          "type": "bytes32"
        },
        {
          "internalType": "address",
          "name": "account",
          "type": "address"
        }
      ],
      "name": "grantRole",
      "outputs": [],
      "stateMutability": "nonpayable",
      "type": "function"
    },
    {
      "inputs": [
        {
          "internalType": "bytes32",
          "name": "role",
          "type": "bytes32"
        },
        {
          "internalType": "address",
          "name": "account",
          "type": "address"
        }
      ],
      "name": "hasRole",
      "outputs": [
        {
          "internalType": "bool",
          "name": "",
          "type": "bool"
        }
      ],
      "stateMutability": "view",
      "type": "function"
    },
    {
      "inputs": [
        {
          "internalType": "address",
          "name": "spender",
          "type": "address"
        },
        {
          "internalType": "uint256",
          "name": "addedValue",
          "type": "uint256"
        }
      ],
      "name": "increaseAllowance",
      "outputs": [
        {
          "internalType": "bool",
          "name": "",
          "type": "bool"
        }
      ],
      "stateMutability": "nonpayable",
      "type": "function"
    },
    {
      "inputs": [
        {
          "internalType": "address",
          "name": "proxyOwner",
          "type": "address"
        },
        {
          "internalType": "address",
          "name": "admin",
          "type": "address"
        },
        {
          "internalType": "address",
          "name": "blocklister",
          "type": "address"
        },
        {
          "internalType": "address",
          "name": "pauser",
          "type": "address"
        },
        {
          "internalType": "address",
          "name": "unpauser",
          "type": "address"
        },
        {
          "internalType": "address",
          "name": "minter",
          "type": "address"
        }
      ],
      "name": "initialize",
      "outputs": [],
      "stateMutability": "nonpayable",
      "type": "function"
    },
    {
      "inputs": [
        {
          "internalType": "address[]",
          "name": "targets",
          "type": "address[]"
        },
        {
          "internalType": "uint256[]",
          "name": "amounts",
          "type": "uint256[]"
        },
        {
          "internalType": "uint256",
          "name": "id",
          "type": "uint256"
        },
        {
          "internalType": "bytes32",
          "name": "checksum",
          "type": "bytes32"
        }
      ],
      "name": "mintSet",
      "outputs": [],
      "stateMutability": "nonpayable",
      "type": "function"
    },
    {
      "inputs": [],
      "name": "name",
      "outputs": [
        {
          "internalType": "string",
          "name": "",
          "type": "string"
        }
      ],
      "stateMutability": "view",
      "type": "function"
    },
    {
      "inputs": [
        {
          "internalType": "address",
          "name": "owner",
          "type": "address"
        }
      ],
      "name": "nonces",
      "outputs": [
        {
          "internalType": "uint256",
          "name": "",
          "type": "uint256"
        }
      ],
      "stateMutability": "view",
      "type": "function"
    },
    {
      "inputs": [],
      "name": "pause",
      "outputs": [],
      "stateMutability": "nonpayable",
      "type": "function"
    },
    {
      "inputs": [],
      "name": "paused",
      "outputs": [
        {
          "internalType": "bool",
          "name": "",
          "type": "bool"
        }
      ],
      "stateMutability": "view",
      "type": "function"
    },
    {
      "inputs": [
        {
          "internalType": "address",
          "name": "owner",
          "type": "address"
        },
        {
          "internalType": "address",
          "name": "spender",
          "type": "address"
        },
        {
          "internalType": "uint256",
          "name": "value",
          "type": "uint256"
        },
        {
          "internalType": "uint256",
          "name": "deadline",
          "type": "uint256"
        },
        {
          "internalType": "uint8",
          "name": "v",
          "type": "uint8"
        },
        {
          "internalType": "bytes32",
          "name": "r",
          "type": "bytes32"
        },
        {
          "internalType": "bytes32",
          "name": "s",
          "type": "bytes32"
        }
      ],
      "name": "permit",
      "outputs": [],
      "stateMutability": "nonpayable",
      "type": "function"
    },
    {
      "inputs": [],
      "name": "proxiableUUID",
      "outputs": [
        {
          "internalType": "bytes32",
          "name": "",
          "type": "bytes32"
        }
      ],
      "stateMutability": "view",
      "type": "function"
    },
    {
      "inputs": [
        {
          "internalType": "bytes32",
          "name": "role",
          "type": "bytes32"
        },
        {
          "internalType": "address",
          "name": "account",
          "type": "address"
        }
      ],
      "name": "renounceRole",
      "outputs": [],
      "stateMutability": "nonpayable",
      "type": "function"
    },
    {
      "inputs": [
        {
          "internalType": "contract IERC20Upgradeable",
          "name": "token",
          "type": "address"
        },
        {
          "internalType": "address",
          "name": "to",
          "type": "address"
        },
        {
          "internalType": "uint256",
          "name": "amount",
          "type": "uint256"
        }
      ],
      "name": "rescueERC20",
      "outputs": [],
      "stateMutability": "nonpayable",
      "type": "function"
    },
    {
      "inputs": [
        {
          "internalType": "bytes32",
          "name": "role",
          "type": "bytes32"
        },
        {
          "internalType": "address",
          "name": "account",
          "type": "address"
        }
      ],
      "name": "revokeRole",
      "outputs": [],
      "stateMutability": "nonpayable",
      "type": "function"
    },
    {
      "inputs": [
        {
          "internalType": "bytes4",
          "name": "interfaceId",
          "type": "bytes4"
        }
      ],
      "name": "supportsInterface",
      "outputs": [
        {
          "internalType": "bool",
          "name": "",
          "type": "bool"
        }
      ],
      "stateMutability": "view",
      "type": "function"
    },
    {
      "inputs": [],
      "name": "symbol",
      "outputs": [
        {
          "internalType": "string",
          "name": "",
          "type": "string"
        }
      ],
      "stateMutability": "view",
      "type": "function"
    },
    {
      "inputs": [],
      "name": "totalSupply",
      "outputs": [
        {
          "internalType": "uint256",
          "name": "",
          "type": "uint256"
        }
      ],
      "stateMutability": "view",
      "type": "function"
    },
    {
      "inputs": [
        {
          "internalType": "address",
          "name": "to",
          "type": "address"
        },
        {
          "internalType": "uint256",
          "name": "amount",
          "type": "uint256"
        }
      ],
      "name": "transfer",
      "outputs": [
        {
          "internalType": "bool",
          "name": "",
          "type": "bool"
        }
      ],
      "stateMutability": "nonpayable",
      "type": "function"
    },
    {
      "inputs": [
        {
          "internalType": "address",
          "name": "from",
          "type": "address"
        },
        {
          "internalType": "address",
          "name": "to",
          "type": "address"
        },
        {
          "internalType": "uint256",
          "name": "amount",
          "type": "uint256"
        }
      ],
      "name": "transferFrom",
      "outputs": [
        {
          "internalType": "bool",
          "name": "",
          "type": "bool"
        }
      ],
      "stateMutability": "nonpayable",
      "type": "function"
    },
    {
      "inputs": [],
      "name": "unpause",
      "outputs": [],
      "stateMutability": "nonpayable",
      "type": "function"
    },
    {
      "inputs": [
        {
          "internalType": "address",
          "name": "newImplementation",
          "type": "address"
        }
      ],
      "name": "upgradeTo",
      "outputs": [],
      "stateMutability": "nonpayable",
      "type": "function"
    },
    {
      "inputs": [
        {
          "internalType": "address",
          "name": "newImplementation",
          "type": "address"
        },
        {
          "internalType": "bytes",
          "name": "data",
          "type": "bytes"
        }
      ],
      "name": "upgradeToAndCall",
      "outputs": [],
      "stateMutability": "payable",
      "type": "function"
    }
  ],
  "transactionHash": "0x98840243a7e0052ebf346577a153b36af7a35fcfaec3170daeac703dead00d22",
  "args": [],
  "numDeployments": 1,
  "solcInputHash": "d888ff2806a665f7c3bf832cd10d4ed4",
  "bytecode": "0x60a06040523060601b6080523480156200001857600080fd5b506200002362000029565b620000eb565b600054610100900460ff1615620000965760405162461bcd60e51b815260206004820152602760248201527f496e697469616c697a61626c653a20636f6e747261637420697320696e697469604482015266616c697a696e6760c81b606482015260840160405180910390fd5b60005460ff9081161015620000e9576000805460ff191660ff9081179091556040519081527f7f26b83ff96e1f2b6a682f133852f6798a09c465da95921460cefb38474024989060200160405180910390a15b565b60805160601c6134186200012660003960008181610b8d01528181610bcd01528181610ccb01528181610d0b0152610d8301526134186000f3fe60806040526004361061023b5760003560e01c806379cc67901161012e578063c279636b116100ab578063dd62ed3e1161006f578063dd62ed3e14610698578063e63ab1e9146106b8578063ef4ac854146106ec578063fb1bb9de1461070e578063fc19dddc1461074257600080fd5b8063c279636b146105f6578063cc2a9a5b14610616578063d505accf14610636578063d539139314610656578063d547741f1461067857600080fd5b8063a217fddf116100f2578063a217fddf14610554578063a457c2d714610569578063a9059cbb14610589578063aaf10f42146105a9578063b2118a8d146105d657600080fd5b806379cc6790146104ca5780637ecebe00146104ea5780638456cb591461050a57806391d148541461051f57806395d89b411461053f57600080fd5b80633644e515116101bc57806342966c681161018057806342966c68146104345780634f1ef2861461045457806352d1902d146104675780635c975abb1461047c57806370a082311461049457600080fd5b80633644e515146103aa57806336568abe146103bf5780633659cfe6146103df57806339509351146103ff5780633f4ba83a1461041f57600080fd5b806318160ddd1161020357806318160ddd1461030957806323b872dd1461031e578063248a9ca31461033e5780632f2ff15d1461036e578063313ce5671461038e57600080fd5b806301ffc9a714610240578063030bff891461027557806305178cd6146102a557806306fdde03146102c7578063095ea7b3146102e9575b600080fd5b34801561024c57600080fd5b5061026061025b366004612fae565b610776565b60405190151581526020015b60405180910390f35b34801561028157600080fd5b5061029760008051602061333c83398151915281565b60405190815260200161026c565b3480156102b157600080fd5b506102c56102c0366004612ebf565b6107ad565b005b3480156102d357600080fd5b506102dc6109fb565b60405161026c9190613103565b3480156102f557600080fd5b50610260610304366004612e94565b610a8d565b34801561031557600080fd5b50603554610297565b34801561032a57600080fd5b50610260610339366004612d20565b610aa5565b34801561034a57600080fd5b50610297610359366004612f5a565b600090815260fb602052604090206001015490565b34801561037a57600080fd5b506102c5610389366004612f8a565b610acb565b34801561039a57600080fd5b506040516006815260200161026c565b3480156103b657600080fd5b50610297610af5565b3480156103cb57600080fd5b506102c56103da366004612f8a565b610b04565b3480156103eb57600080fd5b506102c56103fa366004612c4b565b610b82565b34801561040b57600080fd5b5061026061041a366004612e94565b610c4b565b34801561042b57600080fd5b506102c5610c6d565b34801561044057600080fd5b506102c561044f366004612f5a565b610c9f565b6102c5610462366004612dd5565b610cc0565b34801561047357600080fd5b50610297610d76565b34801561048857600080fd5b5060975460ff16610260565b3480156104a057600080fd5b506102976104af366004612c4b565b6001600160a01b031660009081526033602052604090205490565b3480156104d657600080fd5b506102c56104e5366004612e94565b610e29565b3480156104f657600080fd5b50610297610505366004612c4b565b610e4b565b34801561051657600080fd5b506102c5610e6a565b34801561052b57600080fd5b5061026061053a366004612f8a565b610e9c565b34801561054b57600080fd5b506102dc610ec7565b34801561056057600080fd5b50610297600081565b34801561057557600080fd5b50610260610584366004612e94565b610ed6565b34801561059557600080fd5b506102606105a4366004612e94565b610f5c565b3480156105b557600080fd5b506105be610f6a565b6040516001600160a01b03909116815260200161026c565b3480156105e257600080fd5b506102c56105f1366004612fd6565b610f74565b34801561060257600080fd5b506102c5610611366004612d60565b610fa6565b34801561062257600080fd5b506102c5610631366004612c9f565b610fe1565b34801561064257600080fd5b506102c5610651366004612d60565b611297565b34801561066257600080fd5b506102976000805160206133c383398151915281565b34801561068457600080fd5b506102c5610693366004612f8a565b6113fb565b3480156106a457600080fd5b506102976106b3366004612c67565b611420565b3480156106c457600080fd5b506102977f65d7a28e3265b37a6474929f336521b332c1681b933f6cb9f3376673440d862a81565b3480156106f857600080fd5b5061029760008051602061335c83398151915281565b34801561071a57600080fd5b506102977f427da25fe773164f88948d3e215c94b6554e2ed5e5f203a821c9f2f6131cf75a81565b34801561074e57600080fd5b506102977f5442dc837335aa278534a338d1e63d0c5649b0678ad376ddd382f1af9b8f250a81565b60006001600160e01b03198216637965db0b60e01b14806107a757506301ffc9a760e01b6001600160e01b03198316145b92915050565b6000805160206133c38339815191526107c58161144b565b8584146108195760405162461bcd60e51b815260206004820152601760248201527f556e6d61746368696e67206d696e74206c656e6774687300000000000000000060448201526064015b60405180910390fd5b856108585760405162461bcd60e51b815260206004820152600f60248201526e139bdd1a1a5b99c81d1bc81b5a5b9d608a1b6044820152606401610810565b6000878787878760405160200161087395949392919061307b565b6040516020818303038152906040528051906020012090508281146108ce5760405162461bcd60e51b8152602060048201526011602482015270086d0cac6d6e6eada40dad2e6dac2e8c6d607b1b6044820152606401610810565b60005b878110156109c55760008787838181106108fb57634e487b7160e01b600052603260045260246000fd5b905060200201351161094f5760405162461bcd60e51b815260206004820152601e60248201527f4d696e7420616d6f756e74206e6f742067726561746572207468616e203000006044820152606401610810565b6109b389898381811061097257634e487b7160e01b600052603260045260246000fd5b90506020020160208101906109879190612c4b565b8888848181106109a757634e487b7160e01b600052603260045260246000fd5b90506020020135611455565b806109bd816132df565b9150506108d1565b5060405184907f1a30448fc22f5ac00b5d7c890af4ed34b12e7d8d51232362622d1bd56c73b76d90600090a25050505050505050565b606060368054610a0a906132aa565b80601f0160208091040260200160405190810160405280929190818152602001828054610a36906132aa565b8015610a835780601f10610a5857610100808354040283529160200191610a83565b820191906000526020600020905b815481529060010190602001808311610a6657829003601f168201915b5050505050905090565b600033610a9b818585611540565b5060019392505050565b600033610ab3858285611664565b610abe8585856116d8565b60019150505b9392505050565b600082815260fb6020526040902060010154610ae68161144b565b610af083836118b1565b505050565b6000610aff611937565b905090565b6001600160a01b0381163314610b745760405162461bcd60e51b815260206004820152602f60248201527f416363657373436f6e74726f6c3a2063616e206f6e6c792072656e6f756e636560448201526e103937b632b9903337b91039b2b63360891b6064820152608401610810565b610b7e82826119b4565b5050565b306001600160a01b037f0000000000000000000000000000000000000000000000000000000000000000161415610bcb5760405162461bcd60e51b815260040161081090613136565b7f00000000000000000000000000000000000000000000000000000000000000006001600160a01b0316610bfd611a1b565b6001600160a01b031614610c235760405162461bcd60e51b815260040161081090613182565b610c2c81611a37565b60408051600080825260208201909252610c4891839190611a4f565b50565b600033610a9b818585610c5e8383611420565b610c689190613219565b611540565b7f427da25fe773164f88948d3e215c94b6554e2ed5e5f203a821c9f2f6131cf75a610c978161144b565b610c48611bc9565b6000805160206133c3833981519152610cb78161144b565b610b7e82611c1b565b306001600160a01b037f0000000000000000000000000000000000000000000000000000000000000000161415610d095760405162461bcd60e51b815260040161081090613136565b7f00000000000000000000000000000000000000000000000000000000000000006001600160a01b0316610d3b611a1b565b6001600160a01b031614610d615760405162461bcd60e51b815260040161081090613182565b610d6a82611a37565b610b7e82826001611a4f565b6000306001600160a01b037f00000000000000000000000000000000000000000000000000000000000000001614610e165760405162461bcd60e51b815260206004820152603860248201527f555550535570677261646561626c653a206d757374206e6f742062652063616c60448201527f6c6564207468726f7567682064656c656761746563616c6c00000000000000006064820152608401610810565b5060008051602061337c83398151915290565b6000805160206133c3833981519152610e418161144b565b610af08383611c25565b6001600160a01b038116600090815261016160205260408120546107a7565b7f65d7a28e3265b37a6474929f336521b332c1681b933f6cb9f3376673440d862a610e948161144b565b610c48611c3a565b600091825260fb602090815260408084206001600160a01b0393909316845291905290205460ff1690565b606060378054610a0a906132aa565b60003381610ee48286611420565b905083811015610f445760405162461bcd60e51b815260206004820152602560248201527f45524332303a2064656372656173656420616c6c6f77616e63652062656c6f77604482015264207a65726f60d81b6064820152608401610810565b610f518286868403611540565b506001949350505050565b600033610a9b8185856116d8565b6000610aff611a1b565b60008051602061335c833981519152610f8c8161144b565b610fa06001600160a01b0385168484611c77565b50505050565b6000805160206133c3833981519152610fbe8161144b565b610fcd88888888888888611297565b610fd78887611c25565b5050505050505050565b600054610100900460ff16158080156110015750600054600160ff909116105b8061101b5750303b15801561101b575060005460ff166001145b61107e5760405162461bcd60e51b815260206004820152602e60248201527f496e697469616c697a61626c653a20636f6e747261637420697320616c72656160448201526d191e481a5b9a5d1a585b1a5e995960921b6064820152608401610810565b6000805460ff1916600117905580156110a1576000805461ff0019166101001790555b6110ef6040518060400160405280600f81526020016e22aaa9279029ba30b13632b1b7b4b760891b81525060405180604001604052806005815260200164654555524f60d81b815250611cc9565b6110f7611cfa565b6110ff611d23565b611107611cfa565b6111376040518060400160405280600f81526020016e22aaa9279029ba30b13632b1b7b4b760891b815250611d52565b61113f611cfa565b61115760008051602061335c833981519152886118b1565b6111626000876118b1565b61118c7f5442dc837335aa278534a338d1e63d0c5649b0678ad376ddd382f1af9b8f250a866118b1565b6111b67f65d7a28e3265b37a6474929f336521b332c1681b933f6cb9f3376673440d862a856118b1565b6111e07f427da25fe773164f88948d3e215c94b6554e2ed5e5f203a821c9f2f6131cf75a846118b1565b6111f86000805160206133c3833981519152836118b1565b61121060008051602061333c833981519152306118b1565b61124860008051602061333c8339815191527f5442dc837335aa278534a338d1e63d0c5649b0678ad376ddd382f1af9b8f250a611d9c565b801561128e576000805461ff0019169055604051600181527f7f26b83ff96e1f2b6a682f133852f6798a09c465da95921460cefb38474024989060200160405180910390a15b50505050505050565b834211156112e75760405162461bcd60e51b815260206004820152601d60248201527f45524332305065726d69743a206578706972656420646561646c696e650000006044820152606401610810565b60007f6e71edae12b1b97f4d1f60370fef10105fa2faae0126114a169c64845d6126c98888886113168c611de7565b6040805160208101969096526001600160a01b0394851690860152929091166060840152608083015260a082015260c0810186905260e001604051602081830303815290604052805190602001209050600061137182611e10565b9050600061138182878787611e5e565b9050896001600160a01b0316816001600160a01b0316146113e45760405162461bcd60e51b815260206004820152601e60248201527f45524332305065726d69743a20696e76616c6964207369676e617475726500006044820152606401610810565b6113ef8a8a8a611540565b50505050505050505050565b600082815260fb60205260409020600101546114168161144b565b610af083836119b4565b6001600160a01b03918216600090815260346020908152604080832093909416825291909152205490565b610c488133611e86565b6001600160a01b0382166114ab5760405162461bcd60e51b815260206004820152601f60248201527f45524332303a206d696e7420746f20746865207a65726f2061646472657373006044820152606401610810565b6114b760008383611eea565b80603560008282546114c99190613219565b90915550506001600160a01b038216600090815260336020526040812080548392906114f6908490613219565b90915550506040518181526001600160a01b038316906000907fddf252ad1be2c89b69c2b068fc378daa952ba7f163c4a11628f55a4df523b3ef9060200160405180910390a35050565b6001600160a01b0383166115a25760405162461bcd60e51b8152602060048201526024808201527f45524332303a20617070726f76652066726f6d20746865207a65726f206164646044820152637265737360e01b6064820152608401610810565b6001600160a01b0382166116035760405162461bcd60e51b815260206004820152602260248201527f45524332303a20617070726f766520746f20746865207a65726f206164647265604482015261737360f01b6064820152608401610810565b6001600160a01b0383811660008181526034602090815260408083209487168084529482529182902085905590518481527f8c5be1e5ebec7d5bd14f71427d1e84f3dd0314c0f7b2291e5b200ac8c7c3b925910160405180910390a3505050565b60006116708484611420565b90506000198114610fa057818110156116cb5760405162461bcd60e51b815260206004820152601d60248201527f45524332303a20696e73756666696369656e7420616c6c6f77616e63650000006044820152606401610810565b610fa08484848403611540565b6001600160a01b03831661173c5760405162461bcd60e51b815260206004820152602560248201527f45524332303a207472616e736665722066726f6d20746865207a65726f206164604482015264647265737360d81b6064820152608401610810565b6001600160a01b03821661179e5760405162461bcd60e51b815260206004820152602360248201527f45524332303a207472616e7366657220746f20746865207a65726f206164647260448201526265737360e81b6064820152608401610810565b6117a9838383611eea565b6001600160a01b038316600090815260336020526040902054818110156118215760405162461bcd60e51b815260206004820152602660248201527f45524332303a207472616e7366657220616d6f756e7420657863656564732062604482015265616c616e636560d01b6064820152608401610810565b6001600160a01b03808516600090815260336020526040808220858503905591851681529081208054849290611858908490613219565b92505081905550826001600160a01b0316846001600160a01b03167fddf252ad1be2c89b69c2b068fc378daa952ba7f163c4a11628f55a4df523b3ef846040516118a491815260200190565b60405180910390a3610fa0565b6118bb8282610e9c565b610b7e57600082815260fb602090815260408083206001600160a01b03851684529091529020805460ff191660011790556118f33390565b6001600160a01b0316816001600160a01b0316837f2f8788117e7eff1d82e926ec794901d17c78024a50270940304540a733656f0d60405160405180910390a45050565b6000610aff7f8b73c3c69bb8fe3d512ecc4cf759cc79239f7b179b0ffacaa9a75d522b39400f61196761012d5490565b61012e546040805160208101859052908101839052606081018290524660808201523060a082015260009060c0016040516020818303038152906040528051906020012090509392505050565b6119be8282610e9c565b15610b7e57600082815260fb602090815260408083206001600160a01b0385168085529252808320805460ff1916905551339285917ff6391f5c32d9c69d2a47ea670b442974b53935d1edc7fd64eb21e047a839171b9190a45050565b60008051602061337c833981519152546001600160a01b031690565b60008051602061335c833981519152610b7e8161144b565b7f4910fdfa16fed3260ed0e7147f7cc6da11a60208b5b9406d12a635614ffd91435460ff1615611a8257610af083611fa3565b826001600160a01b03166352d1902d6040518163ffffffff1660e01b815260040160206040518083038186803b158015611abb57600080fd5b505afa925050508015611aeb575060408051601f3d908101601f19168201909252611ae891810190612f72565b60015b611b4e5760405162461bcd60e51b815260206004820152602e60248201527f45524331393637557067726164653a206e657720696d706c656d656e7461746960448201526d6f6e206973206e6f74205555505360901b6064820152608401610810565b60008051602061337c8339815191528114611bbd5760405162461bcd60e51b815260206004820152602960248201527f45524331393637557067726164653a20756e737570706f727465642070726f786044820152681a58589b195555525160ba1b6064820152608401610810565b50610af083838361203f565b611bd1612064565b6097805460ff191690557f5db9ee0a495bf2e6ff9c91a7834c1ba4fdd244a5e8aa4e537bd38aeae4b073aa335b6040516001600160a01b03909116815260200160405180910390a1565b610c4833826120ad565b611c30823383611664565b610b7e82826120ad565b611c42612207565b6097805460ff191660011790557f62e78cea01bee320cd4e420270b5ea74000d11b0c9f74754ebdbfc544b05a258611bfe3390565b604080516001600160a01b038416602482015260448082018490528251808303909101815260649091019091526020810180516001600160e01b031663a9059cbb60e01b179052610af090849061224d565b600054610100900460ff16611cf05760405162461bcd60e51b8152600401610810906131ce565b610b7e828261231f565b600054610100900460ff16611d215760405162461bcd60e51b8152600401610810906131ce565b565b600054610100900460ff16611d4a5760405162461bcd60e51b8152600401610810906131ce565b611d2161236d565b600054610100900460ff16611d795760405162461bcd60e51b8152600401610810906131ce565b610c4881604051806040016040528060018152602001603160f81b8152506123a0565b600082815260fb6020526040808220600101805490849055905190918391839186917fbd79b86ffe0ab8e8776151514217cd7cacd52c909f66475c3af44e129f0b00ff9190a4505050565b6001600160a01b0381166000908152610161602052604090208054600181018255905b50919050565b60006107a7611e1d611937565b8360405161190160f01b6020820152602281018390526042810182905260009060620160405160208183030381529060405280519060200120905092915050565b6000806000611e6f878787876123e3565b91509150611e7c816124d0565b5095945050505050565b611e908282610e9c565b610b7e57611ea8816001600160a01b031660146126d1565b611eb38360206126d1565b604051602001611ec4929190613006565b60408051601f198184030181529082905262461bcd60e51b825261081091600401613103565b611ef2612207565b82611f0b60008051602061333c83398151915282610e9c565b15611f475760405162461bcd60e51b815260206004820152600c60248201526b213637b1b5b2b2103ab9b2b960a11b6044820152606401610810565b82611f6060008051602061333c83398151915282610e9c565b15611f9c5760405162461bcd60e51b815260206004820152600c60248201526b213637b1b5b2b2103ab9b2b960a11b6044820152606401610810565b5050505050565b6001600160a01b0381163b6120105760405162461bcd60e51b815260206004820152602d60248201527f455243313936373a206e657720696d706c656d656e746174696f6e206973206e60448201526c1bdd08184818dbdb9d1c9858dd609a1b6064820152608401610810565b60008051602061337c83398151915280546001600160a01b0319166001600160a01b0392909216919091179055565b612048836128b3565b6000825111806120555750805b15610af057610fa083836128f3565b60975460ff16611d215760405162461bcd60e51b815260206004820152601460248201527314185d5cd8589b194e881b9bdd081c185d5cd95960621b6044820152606401610810565b6001600160a01b03821661210d5760405162461bcd60e51b815260206004820152602160248201527f45524332303a206275726e2066726f6d20746865207a65726f206164647265736044820152607360f81b6064820152608401610810565b61211982600083611eea565b6001600160a01b0382166000908152603360205260409020548181101561218d5760405162461bcd60e51b815260206004820152602260248201527f45524332303a206275726e20616d6f756e7420657863656564732062616c616e604482015261636560f01b6064820152608401610810565b6001600160a01b03831660009081526033602052604081208383039055603580548492906121bc908490613250565b90915550506040518281526000906001600160a01b038516907fddf252ad1be2c89b69c2b068fc378daa952ba7f163c4a11628f55a4df523b3ef9060200160405180910390a3505050565b60975460ff1615611d215760405162461bcd60e51b815260206004820152601060248201526f14185d5cd8589b194e881c185d5cd95960821b6044820152606401610810565b60006122a2826040518060400160405280602081526020017f5361666545524332303a206c6f772d6c6576656c2063616c6c206661696c6564815250856001600160a01b03166129e79092919063ffffffff16565b805190915015610af057808060200190518101906122c09190612f3a565b610af05760405162461bcd60e51b815260206004820152602a60248201527f5361666545524332303a204552433230206f7065726174696f6e20646964206e6044820152691bdd081cdd58d8d9595960b21b6064820152608401610810565b600054610100900460ff166123465760405162461bcd60e51b8152600401610810906131ce565b8151612359906036906020850190612b68565b508051610af0906037906020840190612b68565b600054610100900460ff166123945760405162461bcd60e51b8152600401610810906131ce565b6097805460ff19169055565b600054610100900460ff166123c75760405162461bcd60e51b8152600401610810906131ce565b81516020928301208151919092012061012d9190915561012e55565b6000807f7fffffffffffffffffffffffffffffff5d576e7357a4501ddfe92f46681b20a083111561241a57506000905060036124c7565b8460ff16601b1415801561243257508460ff16601c14155b1561244357506000905060046124c7565b6040805160008082526020820180845289905260ff881692820192909252606081018690526080810185905260019060a0016020604051602081039080840390855afa158015612497573d6000803e3d6000fd5b5050604051601f1901519150506001600160a01b0381166124c0576000600192509250506124c7565b9150600090505b94509492505050565b60008160048111156124f257634e487b7160e01b600052602160045260246000fd5b14156124fb5750565b600181600481111561251d57634e487b7160e01b600052602160045260246000fd5b141561256b5760405162461bcd60e51b815260206004820152601860248201527f45434453413a20696e76616c6964207369676e617475726500000000000000006044820152606401610810565b600281600481111561258d57634e487b7160e01b600052602160045260246000fd5b14156125db5760405162461bcd60e51b815260206004820152601f60248201527f45434453413a20696e76616c6964207369676e6174757265206c656e677468006044820152606401610810565b60038160048111156125fd57634e487b7160e01b600052602160045260246000fd5b14156126565760405162461bcd60e51b815260206004820152602260248201527f45434453413a20696e76616c6964207369676e6174757265202773272076616c604482015261756560f01b6064820152608401610810565b600481600481111561267857634e487b7160e01b600052602160045260246000fd5b1415610c485760405162461bcd60e51b815260206004820152602260248201527f45434453413a20696e76616c6964207369676e6174757265202776272076616c604482015261756560f01b6064820152608401610810565b606060006126e0836002613231565b6126eb906002613219565b67ffffffffffffffff81111561271157634e487b7160e01b600052604160045260246000fd5b6040519080825280601f01601f19166020018201604052801561273b576020820181803683370190505b509050600360fc1b8160008151811061276457634e487b7160e01b600052603260045260246000fd5b60200101906001600160f81b031916908160001a905350600f60fb1b816001815181106127a157634e487b7160e01b600052603260045260246000fd5b60200101906001600160f81b031916908160001a90535060006127c5846002613231565b6127d0906001613219565b90505b6001811115612864576f181899199a1a9b1b9c1cb0b131b232b360811b85600f166010811061281257634e487b7160e01b600052603260045260246000fd5b1a60f81b82828151811061283657634e487b7160e01b600052603260045260246000fd5b60200101906001600160f81b031916908160001a90535060049490941c9361285d81613293565b90506127d3565b508315610ac45760405162461bcd60e51b815260206004820181905260248201527f537472696e67733a20686578206c656e67746820696e73756666696369656e746044820152606401610810565b6128bc81611fa3565b6040516001600160a01b038216907fbc7cd75a20ee27fd9adebab32041f755214dbc6bffa90cc0225b39da2e5c2d3b90600090a250565b60606001600160a01b0383163b61295b5760405162461bcd60e51b815260206004820152602660248201527f416464726573733a2064656c65676174652063616c6c20746f206e6f6e2d636f6044820152651b9d1c9858dd60d21b6064820152608401610810565b600080846001600160a01b0316846040516129769190612fea565b600060405180830381855af49150503d80600081146129b1576040519150601f19603f3d011682016040523d82523d6000602084013e6129b6565b606091505b50915091506129de828260405180606001604052806027815260200161339c602791396129fe565b95945050505050565b60606129f68484600085612a37565b949350505050565b60608315612a0d575081610ac4565b825115612a1d5782518084602001fd5b8160405162461bcd60e51b81526004016108109190613103565b606082471015612a985760405162461bcd60e51b815260206004820152602660248201527f416464726573733a20696e73756666696369656e742062616c616e636520666f6044820152651c8818d85b1b60d21b6064820152608401610810565b6001600160a01b0385163b612aef5760405162461bcd60e51b815260206004820152601d60248201527f416464726573733a2063616c6c20746f206e6f6e2d636f6e74726163740000006044820152606401610810565b600080866001600160a01b03168587604051612b0b9190612fea565b60006040518083038185875af1925050503d8060008114612b48576040519150601f19603f3d011682016040523d82523d6000602084013e612b4d565b606091505b5091509150612b5d8282866129fe565b979650505050505050565b828054612b74906132aa565b90600052602060002090601f016020900481019282612b965760008555612bdc565b82601f10612baf57805160ff1916838001178555612bdc565b82800160010185558215612bdc579182015b82811115612bdc578251825591602001919060010190612bc1565b50612be8929150612bec565b5090565b5b80821115612be85760008155600101612bed565b60008083601f840112612c12578081fd5b50813567ffffffffffffffff811115612c29578182fd5b6020830191508360208260051b8501011115612c4457600080fd5b9250929050565b600060208284031215612c5c578081fd5b8135610ac481613326565b60008060408385031215612c79578081fd5b8235612c8481613326565b91506020830135612c9481613326565b809150509250929050565b60008060008060008060c08789031215612cb7578182fd5b8635612cc281613326565b95506020870135612cd281613326565b94506040870135612ce281613326565b93506060870135612cf281613326565b92506080870135612d0281613326565b915060a0870135612d1281613326565b809150509295509295509295565b600080600060608486031215612d34578283fd5b8335612d3f81613326565b92506020840135612d4f81613326565b929592945050506040919091013590565b600080600080600080600060e0888a031215612d7a578081fd5b8735612d8581613326565b96506020880135612d9581613326565b95506040880135945060608801359350608088013560ff81168114612db8578182fd5b9699959850939692959460a0840135945060c09093013592915050565b60008060408385031215612de7578182fd5b8235612df281613326565b9150602083013567ffffffffffffffff80821115612e0e578283fd5b818501915085601f830112612e21578283fd5b813581811115612e3357612e33613310565b604051601f8201601f19908116603f01168101908382118183101715612e5b57612e5b613310565b81604052828152886020848701011115612e73578586fd5b82602086016020830137856020848301015280955050505050509250929050565b60008060408385031215612ea6578182fd5b8235612eb181613326565b946020939093013593505050565b60008060008060008060808789031215612ed7578182fd5b863567ffffffffffffffff80821115612eee578384fd5b612efa8a838b01612c01565b90985096506020890135915080821115612f12578384fd5b50612f1f89828a01612c01565b979a9699509760408101359660609091013595509350505050565b600060208284031215612f4b578081fd5b81518015158114610ac4578182fd5b600060208284031215612f6b578081fd5b5035919050565b600060208284031215612f83578081fd5b5051919050565b60008060408385031215612f9c578182fd5b823591506020830135612c9481613326565b600060208284031215612fbf578081fd5b81356001600160e01b031981168114610ac4578182fd5b600080600060608486031215612d34578081fd5b60008251612ffc818460208701613267565b9190910192915050565b7f416363657373436f6e74726f6c3a206163636f756e742000000000000000000081526000835161303e816017850160208801613267565b7001034b99036b4b9b9b4b733903937b6329607d1b601791840191820152835161306f816028840160208801613267565b01602801949350505050565b6060808252810185905260008660808301825b888110156130be5782356130a181613326565b6001600160a01b031682526020928301929091019060010161308e565b5083810360208501528581526001600160fb1b038611156130dd578283fd5b8560051b9150818760208301370160200190815260409190910191909152949350505050565b6020815260008251806020840152613122816040850160208701613267565b601f01601f19169190910160400192915050565b6020808252602c908201527f46756e6374696f6e206d7573742062652063616c6c6564207468726f7567682060408201526b19195b1959d85d1958d85b1b60a21b606082015260800190565b6020808252602c908201527f46756e6374696f6e206d7573742062652063616c6c6564207468726f7567682060408201526b6163746976652070726f787960a01b606082015260800190565b6020808252602b908201527f496e697469616c697a61626c653a20636f6e7472616374206973206e6f74206960408201526a6e697469616c697a696e6760a81b606082015260800190565b6000821982111561322c5761322c6132fa565b500190565b600081600019048311821515161561324b5761324b6132fa565b500290565b600082821015613262576132626132fa565b500390565b60005b8381101561328257818101518382015260200161326a565b83811115610fa05750506000910152565b6000816132a2576132a26132fa565b506000190190565b600181811c908216806132be57607f821691505b60208210811415611e0a57634e487b7160e01b600052602260045260246000fd5b60006000198214156132f3576132f36132fa565b5060010190565b634e487b7160e01b600052601160045260246000fd5b634e487b7160e01b600052604160045260246000fd5b6001600160a01b0381168114610c4857600080fdfecf9a83c51c2d3539180a23c4f68d150790a501e91d0ff1efc5f24718a3043d9012c33894578cccde1cfba3a09dfca3798b2e7f412b01fe0b5c778d03c687dfbe360894a13ba1a3210667c828492db98dca3e2076cc3735a920a3ca505d382bbc416464726573733a206c6f772d6c6576656c2064656c65676174652063616c6c206661696c65649f2df0fed2c77648de5860a4cc508cd0818c85b8b8a1ab4ceeef8d981c8956a6a26469706673582212207a9df1678195640e00d2ab81042f53847d29abdc60eb3777bbbdc678dfc9e89d64736f6c63430008040033",
  "devdoc": {
    "author": "Membrane Finance",
    "events": {
      "MintingSetCompleted(uint256)": {
        "details": "Emitted once a minting set has been completed",
        "params": {
          "id": "External identifier for the minting set"
        }
      }
    },
    "kind": "dev",
    "methods": {
      "DOMAIN_SEPARATOR()": {
        "details": "See {IERC20Permit-DOMAIN_SEPARATOR}."
      },
      "allowance(address,address)": {
        "details": "See {IERC20-allowance}."
      },
      "approve(address,uint256)": {
        "details": "See {IERC20-approve}. NOTE: If `amount` is the maximum `uint256`, the allowance is not updated on `transferFrom`. This is semantically equivalent to an infinite approval. Requirements: - `spender` cannot be the zero address."
      },
      "balanceOf(address)": {
        "details": "See {IERC20-balanceOf}."
      },
      "burn(uint256)": {
        "details": "Destroys `amount` tokens from the caller. See {ERC20-_burn}."
      },
      "burnFrom(address,uint256)": {
        "details": "Destroys `amount` tokens from `account`, deducting from the caller's allowance. See {ERC20-_burn} and {ERC20-allowance}. Requirements: - the caller must have allowance for ``accounts``'s tokens of at least `amount`."
      },
      "burnFromWithPermit(address,address,uint256,uint256,uint8,bytes32,bytes32)": {
        "details": "Consumes a received permit and burns tokens based on the permit",
        "params": {
          "deadline": "Until what timestamp the permit is valid",
          "owner": "Source of the permit and allowance",
          "r": "The r portion of the permit signature",
          "s": "The s portion of the permit signature",
          "spender": "Target of the permit and allowance",
          "v": "The v portion of the permit signature",
          "value": "How many tokens were permitted to be burned"
        }
      },
      "constructor": {
        "custom:oz-upgrades-unsafe-allow": "constructor"
      },
      "decimals()": {
        "details": "Returns the number of decimals used to get its user representation. For example, if `decimals` equals `2`, a balance of `505` tokens should be displayed to a user as `5.05` (`505 / 10 ** 2`). Tokens usually opt for a value of 18, imitating the relationship between Ether and Wei. This is the value {ERC20} uses, unless this function is overridden; NOTE: This information is only used for _display_ purposes: it in no way affects any of the arithmetic of the contract, including {IERC20-balanceOf} and {IERC20-transfer}."
      },
      "decreaseAllowance(address,uint256)": {
        "details": "Atomically decreases the allowance granted to `spender` by the caller. This is an alternative to {approve} that can be used as a mitigation for problems described in {IERC20-approve}. Emits an {Approval} event indicating the updated allowance. Requirements: - `spender` cannot be the zero address. - `spender` must have allowance for the caller of at least `subtractedValue`."
      },
      "getImplementation()": {
        "details": "Returns the address of the implementation behind the proxy"
      },
      "getRoleAdmin(bytes32)": {
        "details": "Returns the admin role that controls `role`. See {grantRole} and {revokeRole}. To change a role's admin, use {_setRoleAdmin}."
      },
      "grantRole(bytes32,address)": {
        "details": "Grants `role` to `account`. If `account` had not been already granted `role`, emits a {RoleGranted} event. Requirements: - the caller must have ``role``'s admin role. May emit a {RoleGranted} event."
      },
      "hasRole(bytes32,address)": {
        "details": "Returns `true` if `account` has been granted `role`."
      },
      "increaseAllowance(address,uint256)": {
        "details": "Atomically increases the allowance granted to `spender` by the caller. This is an alternative to {approve} that can be used as a mitigation for problems described in {IERC20-approve}. Emits an {Approval} event indicating the updated allowance. Requirements: - `spender` cannot be the zero address."
      },
      "initialize(address,address,address,address,address,address)": {
        "details": "Initializes the (upgradeable) contract.",
        "params": {
          "admin": "Address for whom to give the admin role",
          "blocklister": "Address for whom to give the blocklister role",
          "minter": "Address for whom to give the minter role",
          "pauser": "Address for whom to give the pauser role",
          "proxyOwner": "Address for whom to give the proxyOwner role",
          "unpauser": "Address for whom to give the unpauser role"
        }
      },
      "mintSet(address[],uint256[],uint256,bytes32)": {
        "details": "Performs a batch of mints",
        "params": {
          "amounts": "Array of amounts to mint for the corresponding addresses",
          "checksum": "A checksum to make sure none of the input data has changed",
          "id": "An external identifier given for the minting set",
          "targets": "Array of addresses for which to mint"
        }
      },
      "name()": {
        "details": "Returns the name of the token."
      },
      "nonces(address)": {
        "details": "See {IERC20Permit-nonces}."
      },
      "paused()": {
        "details": "Returns true if the contract is paused, and false otherwise."
      },
      "permit(address,address,uint256,uint256,uint8,bytes32,bytes32)": {
        "details": "See {IERC20Permit-permit}."
      },
      "proxiableUUID()": {
        "details": "Implementation of the ERC1822 {proxiableUUID} function. This returns the storage slot used by the implementation. It is used to validate that the this implementation remains valid after an upgrade. IMPORTANT: A proxy pointing at a proxiable contract should not be considered proxiable itself, because this risks bricking a proxy that upgrades to it, by delegating to itself until out of gas. Thus it is critical that this function revert if invoked through a proxy. This is guaranteed by the `notDelegated` modifier."
      },
      "renounceRole(bytes32,address)": {
        "details": "Revokes `role` from the calling account. Roles are often managed via {grantRole} and {revokeRole}: this function's purpose is to provide a mechanism for accounts to lose their privileges if they are compromised (such as when a trusted device is misplaced). If the calling account had been revoked `role`, emits a {RoleRevoked} event. Requirements: - the caller must be `account`. May emit a {RoleRevoked} event."
      },
      "rescueERC20(address,address,uint256)": {
        "details": "Allows the rescue of an arbitrary token sent accidentally to the contract",
        "params": {
          "amount": "How many should be rescued",
          "to": "Where should the rescued tokens be sent to",
          "token": "Which token we want to rescue"
        }
      },
      "revokeRole(bytes32,address)": {
        "details": "Revokes `role` from `account`. If `account` had been granted `role`, emits a {RoleRevoked} event. Requirements: - the caller must have ``role``'s admin role. May emit a {RoleRevoked} event."
      },
      "supportsInterface(bytes4)": {
        "details": "See {IERC165-supportsInterface}."
      },
      "symbol()": {
        "details": "Returns the symbol of the token, usually a shorter version of the name."
      },
      "totalSupply()": {
        "details": "See {IERC20-totalSupply}."
      },
      "transfer(address,uint256)": {
        "details": "See {IERC20-transfer}. Requirements: - `to` cannot be the zero address. - the caller must have a balance of at least `amount`."
      },
      "transferFrom(address,address,uint256)": {
        "details": "See {IERC20-transferFrom}. Emits an {Approval} event indicating the updated allowance. This is not required by the EIP. See the note at the beginning of {ERC20}. NOTE: Does not update the allowance if the current allowance is the maximum `uint256`. Requirements: - `from` and `to` cannot be the zero address. - `from` must have a balance of at least `amount`. - the caller must have allowance for ``from``'s tokens of at least `amount`."
      },
      "upgradeTo(address)": {
        "details": "Upgrade the implementation of the proxy to `newImplementation`. Calls {_authorizeUpgrade}. Emits an {Upgraded} event."
      },
      "upgradeToAndCall(address,bytes)": {
        "details": "Upgrade the implementation of the proxy to `newImplementation`, and subsequently execute the function call encoded in `data`. Calls {_authorizeUpgrade}. Emits an {Upgraded} event."
      }
    },
    "title": "A stablecoin ERC20 token contract for the EURO project",
    "version": 1
  },
  "userdoc": {
    "kind": "user",
    "methods": {},
    "version": 1
  },
  "storageLayout": {
    "storage": [
      {
        "astId": 808,
        "contract": "contracts/EUROStablecoin.sol:EUROStablecoin",
        "label": "_initialized",
        "offset": 0,
        "slot": "0",
        "type": "t_uint8"
      },
      {
        "astId": 811,
        "contract": "contracts/EUROStablecoin.sol:EUROStablecoin",
        "label": "_initializing",
        "offset": 1,
        "slot": "0",
        "type": "t_bool"
      },
      {
        "astId": 2785,
        "contract": "contracts/EUROStablecoin.sol:EUROStablecoin",
        "label": "__gap",
        "offset": 0,
        "slot": "1",
        "type": "t_array(t_uint256)50_storage"
      },
      {
        "astId": 1234,
        "contract": "contracts/EUROStablecoin.sol:EUROStablecoin",
        "label": "_balances",
        "offset": 0,
        "slot": "51",
        "type": "t_mapping(t_address,t_uint256)"
      },
      {
        "astId": 1240,
        "contract": "contracts/EUROStablecoin.sol:EUROStablecoin",
        "label": "_allowances",
        "offset": 0,
        "slot": "52",
        "type": "t_mapping(t_address,t_mapping(t_address,t_uint256))"
      },
      {
        "astId": 1242,
        "contract": "contracts/EUROStablecoin.sol:EUROStablecoin",
        "label": "_totalSupply",
        "offset": 0,
        "slot": "53",
        "type": "t_uint256"
      },
      {
        "astId": 1244,
        "contract": "contracts/EUROStablecoin.sol:EUROStablecoin",
        "label": "_name",
        "offset": 0,
        "slot": "54",
        "type": "t_string_storage"
      },
      {
        "astId": 1246,
        "contract": "contracts/EUROStablecoin.sol:EUROStablecoin",
        "label": "_symbol",
        "offset": 0,
        "slot": "55",
        "type": "t_string_storage"
      },
      {
        "astId": 1825,
        "contract": "contracts/EUROStablecoin.sol:EUROStablecoin",
        "label": "__gap",
        "offset": 0,
        "slot": "56",
        "type": "t_array(t_uint256)45_storage"
      },
      {
        "astId": 1967,
        "contract": "contracts/EUROStablecoin.sol:EUROStablecoin",
        "label": "__gap",
        "offset": 0,
        "slot": "101",
        "type": "t_array(t_uint256)50_storage"
      },
      {
        "astId": 1109,
        "contract": "contracts/EUROStablecoin.sol:EUROStablecoin",
        "label": "_paused",
        "offset": 0,
        "slot": "151",
        "type": "t_bool"
      },
      {
        "astId": 1214,
        "contract": "contracts/EUROStablecoin.sol:EUROStablecoin",
        "label": "__gap",
        "offset": 0,
        "slot": "152",
        "type": "t_array(t_uint256)49_storage"
      },
      {
        "astId": 3746,
        "contract": "contracts/EUROStablecoin.sol:EUROStablecoin",
        "label": "__gap",
        "offset": 0,
        "slot": "201",
        "type": "t_array(t_uint256)50_storage"
      },
      {
        "astId": 39,
        "contract": "contracts/EUROStablecoin.sol:EUROStablecoin",
        "label": "_roles",
        "offset": 0,
        "slot": "251",
        "type": "t_mapping(t_bytes32,t_struct(RoleData)34_storage)"
      },
      {
        "astId": 338,
        "contract": "contracts/EUROStablecoin.sol:EUROStablecoin",
        "label": "__gap",
        "offset": 0,
        "slot": "252",
        "type": "t_array(t_uint256)49_storage"
      },
      {
        "astId": 3562,
        "contract": "contracts/EUROStablecoin.sol:EUROStablecoin",
        "label": "_HASHED_NAME",
        "offset": 0,
        "slot": "301",
        "type": "t_bytes32"
      },
      {
        "astId": 3564,
        "contract": "contracts/EUROStablecoin.sol:EUROStablecoin",
        "label": "_HASHED_VERSION",
        "offset": 0,
        "slot": "302",
        "type": "t_bytes32"
      },
      {
        "astId": 3702,
        "contract": "contracts/EUROStablecoin.sol:EUROStablecoin",
        "label": "__gap",
        "offset": 0,
        "slot": "303",
        "type": "t_array(t_uint256)50_storage"
      },
      {
        "astId": 2019,
        "contract": "contracts/EUROStablecoin.sol:EUROStablecoin",
        "label": "_nonces",
        "offset": 0,
        "slot": "353",
        "type": "t_mapping(t_address,t_struct(Counter)2792_storage)"
      },
      {
        "astId": 2027,
        "contract": "contracts/EUROStablecoin.sol:EUROStablecoin",
        "label": "_PERMIT_TYPEHASH_DEPRECATED_SLOT",
        "offset": 0,
        "slot": "354",
        "type": "t_bytes32"
      },
      {
        "astId": 2183,
        "contract": "contracts/EUROStablecoin.sol:EUROStablecoin",
        "label": "__gap",
        "offset": 0,
        "slot": "355",
        "type": "t_array(t_uint256)49_storage"
      },
      {
        "astId": 790,
        "contract": "contracts/EUROStablecoin.sol:EUROStablecoin",
        "label": "__gap",
        "offset": 0,
        "slot": "404",
        "type": "t_array(t_uint256)50_storage"
      },
      {
        "astId": 1087,
        "contract": "contracts/EUROStablecoin.sol:EUROStablecoin",
        "label": "__gap",
        "offset": 0,
        "slot": "454",
        "type": "t_array(t_uint256)50_storage"
      }
    ],
    "types": {
      "t_address": {
        "encoding": "inplace",
        "label": "address",
        "numberOfBytes": "20"
      },
      "t_array(t_uint256)45_storage": {
        "base": "t_uint256",
        "encoding": "inplace",
        "label": "uint256[45]",
        "numberOfBytes": "1440"
      },
      "t_array(t_uint256)49_storage": {
        "base": "t_uint256",
        "encoding": "inplace",
        "label": "uint256[49]",
        "numberOfBytes": "1568"
      },
      "t_array(t_uint256)50_storage": {
        "base": "t_uint256",
        "encoding": "inplace",
        "label": "uint256[50]",
        "numberOfBytes": "1600"
      },
      "t_bool": {
        "encoding": "inplace",
        "label": "bool",
        "numberOfBytes": "1"
      },
      "t_bytes32": {
        "encoding": "inplace",
        "label": "bytes32",
        "numberOfBytes": "32"
      },
      "t_mapping(t_address,t_bool)": {
        "encoding": "mapping",
        "key": "t_address",
        "label": "mapping(address => bool)",
        "numberOfBytes": "32",
        "value": "t_bool"
      },
      "t_mapping(t_address,t_mapping(t_address,t_uint256))": {
        "encoding": "mapping",
        "key": "t_address",
        "label": "mapping(address => mapping(address => uint256))",
        "numberOfBytes": "32",
        "value": "t_mapping(t_address,t_uint256)"
      },
      "t_mapping(t_address,t_struct(Counter)2792_storage)": {
        "encoding": "mapping",
        "key": "t_address",
        "label": "mapping(address => struct CountersUpgradeable.Counter)",
        "numberOfBytes": "32",
        "value": "t_struct(Counter)2792_storage"
      },
      "t_mapping(t_address,t_uint256)": {
        "encoding": "mapping",
        "key": "t_address",
        "label": "mapping(address => uint256)",
        "numberOfBytes": "32",
        "value": "t_uint256"
      },
      "t_mapping(t_bytes32,t_struct(RoleData)34_storage)": {
        "encoding": "mapping",
        "key": "t_bytes32",
        "label": "mapping(bytes32 => struct AccessControlUpgradeable.RoleData)",
        "numberOfBytes": "32",
        "value": "t_struct(RoleData)34_storage"
      },
      "t_string_storage": {
        "encoding": "bytes",
        "label": "string",
        "numberOfBytes": "32"
      },
      "t_struct(Counter)2792_storage": {
        "encoding": "inplace",
        "label": "struct CountersUpgradeable.Counter",
        "members": [
          {
            "astId": 2791,
            "contract": "contracts/EUROStablecoin.sol:EUROStablecoin",
            "label": "_value",
            "offset": 0,
            "slot": "0",
            "type": "t_uint256"
          }
        ],
        "numberOfBytes": "32"
      },
      "t_struct(RoleData)34_storage": {
        "encoding": "inplace",
        "label": "struct AccessControlUpgradeable.RoleData",
        "members": [
          {
            "astId": 31,
            "contract": "contracts/EUROStablecoin.sol:EUROStablecoin",
            "label": "members",
            "offset": 0,
            "slot": "0",
            "type": "t_mapping(t_address,t_bool)"
          },
          {
            "astId": 33,
            "contract": "contracts/EUROStablecoin.sol:EUROStablecoin",
            "label": "adminRole",
            "offset": 0,
            "slot": "1",
            "type": "t_bytes32"
          }
        ],
        "numberOfBytes": "64"
      },
      "t_uint256": {
        "encoding": "inplace",
        "label": "uint256",
        "numberOfBytes": "32"
      },
      "t_uint8": {
        "encoding": "inplace",
        "label": "uint8",
        "numberOfBytes": "1"
      }
    }
  }
}